:020000040801F1
:10000000FF7F002089500108D9500108D95001080C
:1000100000000000000000000000000000000000E0
:10002000000000000000000000000000D95001089E
:100030000000000000000000D95001087D430108C5
:10004000D9500108D9500108D9500108D9500108E8
:10005000D9500108D9500108D95001088543010839
:10006000D9500108D9500108D9500108D9500108C8
:1000700091430108A1430108D9500108D950010852
:10008000D9500108B1430108D9500108D9500108DD
:10009000D9500108D9500108D9500108D950010898
:1000A000D9500108D9500108D9500108314401083C
:0C00B0004144010851440108D9500108E6
:1000BC0010B5064C2378002B07D1054B002B02D032
:1000CC00044800E000BF0123237010BDB0010020E4
:1000DC000000000064510108044B10B5002B03D044
:1000EC000349044800E000BF10BDC04600000000FA
:1000FC00B4010020645101080023C25C0133002AC2
:10010C00FBD1581E70470000002243088B4274D369
:10011C0003098B425FD3030A8B4244D3030B8B42FC
:10012C0028D3030C8B420DD3FF22090212BA030C05
:10013C008B4202D31212090265D0030B8B4219D3E6
:10014C0000E0090AC30B8B4201D3CB03C01A524106
:10015C00830B8B4201D38B03C01A5241430B8B424E
:10016C0001D34B03C01A5241030B8B4201D30B0337
:10017C00C01A5241C30A8B4201D3CB02C01A52415E
:10018C00830A8B4201D38B02C01A5241430A8B4221
:10019C0001D34B02C01A5241030A8B4201D30B020A
:1001AC00C01A5241CDD2C3098B4201D3CB01C01A24
:1001BC00524183098B4201D38B01C01A524143092E
:1001CC008B4201D34B01C01A524103098B4201D31C
:1001DC000B01C01A5241C3088B4201D3CB00C01A89
:1001EC00524183088B4201D38B00C01A5241430801
:1001FC008B4201D34B00C01A5241411A00D2014626
:10020C00524110467047FFE701B5002000F0F0F8AE
:10021C0002BDC0460029F7D076E7704703460B4372
:10022C007FD4002243088B4274D303098B425FD3E3
:10023C00030A8B4244D3030B8B4228D3030C8B420F
:10024C000DD3FF22090212BA030C8B4202D31212F5
:10025C00090265D0030B8B4219D300E0090AC30BCA
:10026C008B4201D3CB03C01A5241830B8B4201D377
:10027C008B03C01A5241430B8B4201D34B03C01A60
:10028C005241030B8B4201D30B03C01A5241C30AD8
:10029C008B4201D3CB02C01A5241830A8B4201D349
:1002AC008B02C01A5241430A8B4201D34B02C01A33
:1002BC005241030A8B4201D30B02C01A5241CDD2D8
:1002CC00C3098B4201D3CB01C01A524183098B4223
:1002DC0001D38B01C01A524143098B4201D34B010C
:1002EC00C01A524103098B4201D30B01C01A52416F
:1002FC00C3088B4201D3CB00C01A524183088B42F6
:10030C0001D38B00C01A524143088B4201D34B00DE
:10031C00C01A5241411A00D2014652411046704750
:10032C005DE0CA0F00D04942031000D34042534055
:10033C0000229C4603098B422DD3030A8B4212D315
:10034C00FC22890112BA030A8B420CD38901921147
:10035C008B4208D3890192118B4204D389013AD084
:10036C00921100E08909C3098B4201D3CB01C01A59
:10037C00524183098B4201D38B01C01A524143096C
:10038C008B4201D34B01C01A524103098B4201D35A
:10039C000B01C01A5241C3088B4201D3CB00C01AC7
:1003AC00524183088B4201D38B00C01A5241D9D2DF
:1003BC0043088B4201D34B00C01A5241411A00D260
:1003CC000146634652415B10104601D34042002B5C
:1003DC0000D54942704763465B1000D3404201B5DB
:1003EC00002000F005F802BD0029F8D016E7704790
:1003FC007047C04610B50400FA200E4B80001978E7
:10040C00FFF782FE0C4B01001868FFF77DFE00F031
:10041C00B5FA0123002801D1032C01D9180010BD15
:10042C0000222100013800F071FA044B1C600023FB
:10043C00F4E7C046C000002058010020C400002092
:10044C001021064A10B5136800200B431360FFF708
:10045C00D1FF03F09DFD002010BDC04600200240DE
:10046C00034A044B11681B785B1813607047C04635
:10047C0034020020C0000020014B18687047C046B1
:10048C0034020020002370B5026882B00193916899
:10049C00033304000B40012B31D09168204B1942DF
:1004AC0022D1012193680B4393601E4B1E4918689F
:1004BC00FFF72AFE0190019B002B05D0019B013B0D
:1004CC000193019B002BF9D1FFF7D6FF0125060004
:1004DC0004E0FFF7D1FF801B022818D823681B68A3
:1004EC001D42F6D0002008E010220120A36B13431C
:1004FC00A363E36B0F3A1343E36302B070BD11685F
:10050C000B42EFD1D3681B04C7D50020F5E71022AE
:10051C00A36B01201343A363E36B1D43E563ECE77B
:10052C00170000805801002040420F00F8B5041E4F
:10053C0000D176E0836B002B69D0A36BDB0605D56D
:10054C0010220120A36B1343A363F8BD042023687E
:10055C009A681040F4D1A26B47490A400631FF312A
:10056C000A43A263032299680A40012A74D0182115
:10057C00DA688A43A1680A43DA601A6961689200F2
:10058C0092080A431A61DA683C490A40DA60217E13
:10059C00627E8903D2031143A26AA67E013A551EDC
:1005AC00AA411503E2687703114322693943022AF1
:1005BC0000D104202422A25C52000A43E17E2A438B
:1005CC000243012942D0C220E169FF30814202D0AE
:1005DC00206A01430A43D968E56A1143D960802136
:1005EC0049058D421FD0691E06291CD9DB68244998
:1005FC000B40934220D01222A36B01209343023A6A
:10060C001343A363E36B0F3A1343E3639DE7342275
:10061C00C363835403F0D4FCA36BDB0600D58FE7D4
:10062C0094E7012091E7072158698843586158697C
:10063C00294001435961D9E700230322E363A36BEB
:10064C0000209343023A1343A3637EE7002E0AD1A2
:10065C00802149020A43B6E719680A4293D1DA6845
:10066C00120490D483E72025A06B2843A063E06B91
:10067C000143E163A7E7C046FDFEFFFF1902FEFF41
:10068C00E7FF3F83036810B59A68040052072CD427
:10069C003422815C012928D001218154427E012A17
:1006AC001DD1A26B14491140802252000A43A2634F
:1006BC0034210022E263625461691C321A600829F9
:1006CC0015D15A6804398A435A605A6814310A435E
:1006DC005A60042100209A680A439A6010BDFFF703
:1006EC00D1FE0028FAD12368DBE70220F6E759682F
:1006FC000A435A60EDE7C046FEF0FFFF0368186C32
:10070C007047C0467047C0467047C0460422036815
:10071C0070B5196804000A424AD059680A4247D099
:10072C00A26BD20604D48022A16B92000A43A2636E
:10073C00C022D9681201114213D1A27E002A10D115
:10074C001A6812070DD59A68520744D40C215A68BE
:10075C008A435A60A36B244A13400432FF3213437A
:10076C00A363200003F08EFA0C2223681A60802504
:10077C001A68154202D05A68154221D11022196804
:10078C000A4214D059680A4211D0A26A012A02D036
:10079C00DA68D20709D50221E26B20000A43E26332
:1007AC0010221A60FFF7B0FF236810221A6070BD88
:1007BC00082219680A42DAD059680A42D7D0AFE742
:1007CC008023A26B5B021343A3632000FFF79AFF05
:1007DC0023681D60D2E72022A36B1343A363E36B52
:1007EC001F3A1343E363BCE7FEFEFFFF0023F0B5A3
:1007FC0083B001933433C25C0400012A44D001223B
:10080C002668C06AE254B3685B0709D52022012030
:10081C00A36B1343A36334230022E25403B0F0BD53
:10082C000B68334D1F00AC464D689A40103F654530
:10083C002CD0B56A2A43B2628022520590420FD066
:10084C00013806280CD90722886871691140884242
:10085C0006D0716991437161716902400A437261FA
:10086C00022F0FD823490A68102B29D0113B58426C
:10087C00434121485B42034080204004844663444A
:10088C0013430B600020C6E70220C7E7B16A91430F
:10089C00B162022FF6D8174A1168102B0ED0113BFB
:1008AC001A00531E9A41144B52421340134A944659
:1008BC006344104A0B4013600020ACE7104BF8E780
:1008CC0080231B041A430F4B0A6018680E49FFF76C
:1008DC001BFC8300181840000190019B002BD1D009
:1008EC00019B013B0193019B002BF9D1002092E766
:1008FC000110000008270140000040FFFFFFBFFF70
:10090C00FFFF7FFF5801002040420F00FF2203230E
:10091C0030B51400C5B22B40DB009C4089010A4065
:10092C00E4439A4000280BDB0C4B80089C46C02308
:10093C00800060449B00C1580C402243C25030BD23
:10094C000F2307492B408C46083B9B089B006344B4
:10095C00D9690C402243DA61F1E7C04600E100E0BE
:10096C0000ED00E0002805DB1F2318401E3B8340F0
:10097C00014A13607047C04600E100E00A4A431E7A
:10098C00012093420ED8C021084A09485360036ADB
:10099C0009061B021B0A0B43036200230020936011
:1009AC00073313607047C046FFFFFF0010E000E004
:1009BC0000ED00E00C4B10B5DA680023D20605D52B
:1009CC0002210A4AD3690B43D3611023064AD1682A
:1009DC0004220A4205D0012404481343C16921436F
:1009EC00C161014AD36010BD0020024038020020D2
:1009FC00064B00201A69120606D5054A5A60054AAC
:100A0C005A6018690006C00F7047C04600200240AB
:100A1C0023016745AB89EFCD8021034A0020136980
:100A2C000B4313617047C04600200240F8B5050027
:100A3C00FFF722FD114C0700012601E06B1C12D1BF
:100A4C00E3681E42FAD12023E268134214D10B4B07
:100A5C00DA68D20603D4DB6800205B0702D5FFF707
:100A6C00A9FF0120F8BD002D04D0FFF705FDC01B28
:100A7C00A842E5D90320F5E7E360E8E7002002404F
:100A8C00F0B54E465746DE464546E0B59A4683B02D
:100A9C002A4B019299461B7E04000E00012B48D074
:100AAC0001254B4626481D76FFF7C0FF002836D19E
:100ABC00012C40D0023C63425C4104236442AC43B1
:100ACC00A0469C46E044002300259B4618E0534674
:100ADC00D3404A46594601271A4CD16122699BB230
:100AEC003A43226116483380FFF7A0FF2369BB43CA
:100AFC002361002813D10135EBB2023698450ED98B
:100B0C0020222B0152429A18E1D520225146D21AAA
:100B1C0091400A000199D9400B001343D9E70023F7
:100B2C004A46137603B03CBC90469946A246AB4667
:100B3C00F0BD0220F6E701239846C4E738020020F6
:100B4C0050C3000000200240F0B54F464646D64642
:100B5C00C0B5304F06003B7E8946012B57D0012390
:100B6C003B7603682C48012B34D0FFF75FFF00283D
:100B7C0034D101234A465B421360B3687568DB02CB
:100B8C005B199D422AD20023244C98460AE080230C
:100B9C001B019C46726865449446B368DB0263444F
:100BAC00AB421CD9022243469246FB6123691A4888
:100BBC0013432361656123693E3213432361FFF7BD
:100BCC0035FF52462369934323610028DFD04B46FF
:100BDC001D6004E0FFF72AFF002807D00120002346
:100BEC003B761CBC90469946A246F0BD042540229B
:100BFC000A4CF861236908482B432361236913438A
:100C0C002361FFF713FF2369AB432361E7E702205E
:100C1C00E7E7C0463802002050C300000020024025
:100C2C00F0B54E46DE4657464546E0B5894609685E
:100C3C0085B0002900D182E0704B00229B46704B9E
:100C4C008A4698460125544695402C40009472D013
:100C5C004B46596810230F009F430197022F00D178
:100C6C0074E0036856009C460323B3406446DB43A0
:100C7C001C40270003240C40B440A4463C006746AB
:100C8C003C43019F0460013F012F00D87BE0C56805
:100C9C002B404D46AD68B5402B43C36080235B05AC
:100CAC00194248D05B4601245D4603260F279B69F9
:100CBC0016402343AB61AB69B6002340514CB7409F
:100CCC00A44690240393039B93089B0063449D6864
:100CDC00E405BD43A04212D04B4FB84200D180E096
:100CEC004A4FB84200D178E0494FB84200D17CE07D
:100CFC00484FB84200D17CE00527B7403D439D608A
:100D0C004346009C1B68E543CC034ED444462B4021
:100D1C00236063688C034FD444462B406360A36804
:100D2C00CC0250D444462B40A360E368890251D4D2
:100D3C002B404146CB6053460132D34082D105B0A3
:100D4C003CBC90469946A246AB46F0BD07260F2404
:100D5C001640B600B440D3089B00C3181F6AA743C3
:100D6C004C462469B44026003E431E6203235600C1
:100D7C00B340DB4307681F40BC4603270F40B74016
:100D8C0064462743076087684C461F40BC46E768AB
:100D9C006446B7402743012487604768AF430D0979
:100DAC00254095403D43456071E7009C23434446F4
:100DBC00236063688C03AFD5009C23434446636077
:100DCC00A368CC02AED5009C23434446A360E368E1
:100DDC008902ADD500990B43ABE70227B7403D43E1
:100DEC008DE70124B440254389E70324B44025430F
:100DFC0085E70427B7403D4381E7C0460010024019
:100E0C0000040140000001400004004800080048B4
:100E1C00000C004800100048044B10B55A691042F1
:100E2C0002D0586102F048F810BDC04600040140E1
:100E3C00F8B506000D0017002024326801E06B1C89
:100E4C0020D193691C42FAD01023D361D4619369E9
:100E5C009B0701D500239362012391690B421ED09D
:100E6C00536811490B4053600422736C1343736431
:100E7C0041231C32F25400232232B354023AB354AD
:100E8C000120F8BDFFF7F8FAC01B854201D3002DF5
:100E9C00D3D12022736C134373644123EAE7916925
:100EAC000B439361DCE7C04600E800FEF8B5102365
:100EBC004746CE469846103380B505000C00160008
:100ECC00042799460AE049469A6911421AD1FFF75C
:100EDC00D3FA801BA0422BD8002C29D02B689A69FE
:100EEC00174233D141469A691142ECD032002100AD
:100EFC002800FFF79DFF00282AD149462B689A69E4
:100F0C001142E4D09A69520702D52A8D002A1DD1CC
:100F1C002021D9615A680F4802405A6000234122AF
:100F2C006B64A9540132AB54023AAB54012009E072
:100F3C0020226B6C012013436B644123EA54002282
:100F4C00013BEA540CBC90469946F8BD0020F9E7E9
:100F5C000120F7E700E800FEF0B5C646050000B535
:100F6C000C0090460226102701E0631C13D12B685D
:100F7C009A6916420BD19B691F42F6D0424621005A
:100F8C002800FFF755FF0028EFD0012000E00020DB
:100F9C0004BC9046F0BDFFF76FFA4346C01AA0425E
:100FAC0001D8002CE3D120226B6C012013436B641D
:100FBC004123EA5400232232AB54023AAB54E7E704
:100FCC00F0B51023C646050000B50C00160020270E
:100FDC00984611E042469B691A4206D03200210025
:100FEC002800FFF725FF00281BD1FFF745FA801BCF
:100FFC00A04207D8002C05D02B689A691742E9D07B
:10100C0000200BE020226B6C012013436B64412306
:10101C00EA5400232232AB54023AAB5404BC90463F
:10102C00F0BD0120FAE7C046F8B507000C00160029
:10103C001D003A6801E06B1C08D1936923401B1B0F
:10104C0059424B41B342F6D00020F8BDFFF714FAD9
:10105C00069BC01AA84201D8002DEAD120227B6C35
:10106C00012013437B644123FA5400232232BB54E6
:10107C00023ABB54E9E7C04610B5041E4CD04123DC
:10108C00C35CDBB2002B42D0412324220121E25469
:10109C002368A0681A688A431A6061681F4A0A406C
:1010AC001A619A681E490A409A60E268012A29D09E
:1010BC008421090201439960022A02D18022120183
:1010CC005A605968174A00200A435A60DA68144972
:1010DC000A40DA60616922690A43A16909020A437C
:1010EC00DA60216AE2690A4301211A601A680A432C
:1010FC001A60002341221F316364A154013223631F
:10110C00A35410BD8021090201439960D9E7402204
:10111C00835402F08DFFB7E70120F2E7FFFFFFF0E9
:10112C00FF7FFFFF00800002F0B54746CE4680B53A
:10113C0041279846C35D040083B00E0091460220FF
:10114C00202B77D12033E25C012A73D00122E254A8
:10115C00FFF792F980210500009019230122090262
:10116C002000FFF761FF002800D068E02123102247
:10117C00E3552133E2544B46636243466064638516
:10118C00638DB60560632168B60DFF2B65D9FF230F
:10119C00394A23854B681340384A324313434B601A
:1011AC008027374BBF0498463743638D2A000A9932
:1011BC002000002B2DD0FFF7CFFE00283FD1636A13
:1011CC0022681978013391626362638D013B9BB293
:1011DC006385238D628D013B9BB22385002AE4D06D
:1011EC00002BE2D100950A9B002280212000FFF702
:1011FC001BFF002823D1638D2168FF2B21D9FF23EE
:10120C00424623854B6813401E4A324313434B60BE
:10121C00CBE7FFF7D5FE002811D1202123681A4D0A
:10122C00D9615A682A405A604123E1540133E05491
:10123C00023BE05403B00CBC90469946F0BD012033
:10124C00F8E74046638D4A689BB223850240DBB2C7
:10125C003A431B0413434B60A7E7638D06484A6867
:10126C009BB20240094823853043DBB202431B0486
:10127C0013434B6094E7C046009800FC0020FF81AC
:10128C00009C00FC0000FF0100E800FE0020008232
:10129C00F0B54746CE4680B541279846C35D04005D
:1012AC0083B00E0091460220202B78D12033E25CD3
:1012BC00012A74D00122E254FFF7DEF880210500E8
:1012CC0000901923012209022000FFF7ADFE00282F
:1012DC0000D069E022231022E3552033E2544B4620
:1012EC006362434660646385638DB6056063216801
:1012FC00B60DFF2B66D9FF23394A23854B68134063
:10130C00384A324313434B608027374BBF0498460F
:10131C003743638D2A000A992000002B2ED0FFF74B
:10132C00C5FD002840D12368626A5B6A1370628D28
:10133C00636A013A013392B26362238D6285013B89
:10134C00628D9BB22385002AE3D0002BE1D100955E
:10135C000A9B002280212000FFF766FE002823D183
:10136C00638D2168FF2B21D9FF23424623854B68CF
:10137C0013401E4A324313434B60CAE7FFF720FE6B
:10138C00002811D120212368194DD9615A682A40AF
:10139C005A604123E1540133E054023BE05403B062
:1013AC000CBC90469946F0BD0120F8E74046638D91
:1013BC004A689BB223850240DBB23A431B041343B9
:1013CC004B60A6E7638D06484A689BB20240094809
:1013DC0023853043DBB202431B0413434B6093E77A
:1013EC00009800FC0024FF81009C00FC0000FF0121
:1013FC0000E800FE00240082F0B5CE4647464124AA
:10140C0080B5035D0222DBB2202B1CD14026855D0A
:10141C00012D18D00127223202550268B9461568F1
:10142C00BD4315601568A8464746094D2F40176007
:10143C00156829434D461160116829431160035505
:10144C0000230022835510000CBC90469946F0BD39
:10145C00FFEFFFFFF0B5CE464746412480B5035D54
:10146C000222DBB2202B1BD14026855D012D17D02B
:10147C000127223202550268B94615680902BD439C
:10148C0015601568A8464746084D2F404D46394310
:10149C001160116829431160035500230022835504
:1014AC0010000CBC90469946F0BDC046FFF0FFFF03
:1014BC00F0B5CE46474680B5040083B0002800D175
:1014CC00F6E00368DA0735D50C21C04842680A40BB
:1014DC00042A00D15EE142681140082900D150E194
:1014EC006368012B0FD0002B00D17DE1052B00D1BF
:1014FC00EDE1B64BB6491A680A401A601A68B5494C
:10150C000A401A6005E08023B04A5B0211680B4365
:10151C001360FEF7B1FF80250700AC4EAD0205E06D
:10152C00FEF7AAFFC01B642800D94DE133682B429B
:10153C00F6D023689A0744D41A0717D5E369A34D4C
:10154C00002B00D1D3E001226B6A022613436B629D
:10155C00FEF792FF070005E0FEF78EFFC01B022886
:10156C0000D931E16B6A1E42F6D023685A0771D557
:10157C008022964B5205D9690025114207D1D969B1
:10158C0001351143D961DB691A400192019B802618
:10159C00914F76003B68334200D105E1A368012BE3
:1015AC003AD0002B00D138E1052B00D1D3E1012139
:1015BC00864B1A6A8A431A621A6A03318A431A6280
:1015CC002EE00C2281494868024200D17FE0486835
:1015DC000240082A00D171E0E368002B00D136E10B
:1015EC0001227A4F02253B6813433B60FEF744FF10
:1015FC00060005E0FEF740FF801B022800D9E3E05F
:10160C003B681D42F6D0F8213A6823698A43DB0017
:10161C0013433B6023688FE76C490A6A13430B62E0
:10162C00FEF72AFF6D4B8146684F0226984606E06E
:10163C00FEF722FF4B46C01A404500D9C4E03B6A76
:10164C001E42F5D0012D04D1604A6549D3690B4087
:10165C00D3612368DA0612D56269012A00D19FE1B1
:10166C00053200D007E10420F82558494A6B824323
:10167C004A63486BA269A843D20002434A639B06A3
:10168C005ED50C2251494B6813400C2B09D04B688A
:10169C001A40082A3ED1C0224B6852021340934292
:1016AC0038D14A4B5B6BDB034AD5236A012B47D0FD
:1016BC00012003B00CBC90469946F0BD4A68C0218D
:1016CC0049020A40802109028A4200D084E73F4A3D
:1016DC001268920702D5E268012AE9D1F8253B4845
:1016EC0022690168D200A9430A43026024E701225F
:1016FC006B6A022693436B62FEF7BEFE070004E0A2
:10170C00FEF7BAFEC01B02285ED86B6A1E42F7D1E8
:10171C0023682BE7236A2D4D002B00D1C3E08026D4
:10172C006B6B760233436B63FEF7A6FE070004E097
:10173C00FEF7A2FEC01B022846D86B6B3342F7D0D3
:10174C00636A002B1BD00C22204D69680A40082AC2
:10175C0000D10AE1022B00D1C5E02B68214A80247C
:10176C0013402B60FEF788FEA404060004E0FEF78D
:10177C0083FE801B022827D82B682342F7D1002038
:10178C0097E7C021426849020A40802149028A42F7
:10179C0000D0A5E60D4A1268920300D4CAE662682E
:1017AC00002A00D0C6E683E73B6833433B60FEF774
:1017BC0063FE80463B68334200D0EFE6FEF75CFEEA
:1017CC004346C01A6428F5D9032072E70010024082
:1017DC00FFFFFEFFFFFFFBFF0070004088130000BF
:1017EC00FFFFFFEFFFFFFFFE7D4D7E4A2B6880263B
:1017FC0013402B602B687C4AB60213402B60FEF71B
:10180C003BFE070004E0FEF737FEC01B6428DBD864
:10181C002B683342F7D123688CE60122704E0227E5
:10182C00336A93433362336A033293433362FEF772
:10183C0023FE6E4B8146984605E0FEF71DFE4B4697
:10184C00C01A4045C0D8336A1F42F6D1FAE60122CD
:10185C00634D02262B6893432B60FEF70DFE0700A9
:10186C0004E0FEF709FEC01B0228ADD82B681E420F
:10187C00F7D1236860E60422594D02266B6B1343A3
:10188C006B636B6B033A93436B63FEF7F5FD0700D9
:10189C0004E0FEF7F1FDC01B022895D86B6B1E42CD
:1018AC00F7D12368EBE66B6B4E4A802613406B63D3
:1018BC00FEF7E2FD7602070005E0FEF7DDFDC01B3A
:1018CC00022800D980E76B6B3342F6D138E78022CF
:1018DC00434BD20219680A431A60802219685202DB
:1018EC000A431A6015E62B68414A802613402B6088
:1018FC00FEF7C2FDB604070005E0FEF7BDFDC01BF8
:10190C00022800D960E72B683342F6D10F22EB6A2C
:10191C009343226B1343EB62A16AE36A6A680B433D
:10192C00344980240A4013436B6080232A685B048B
:10193C0013432B60FEF7A0FD294D0600A40405E01F
:10194C00FEF79AFD801B022800D93DE72B68234245
:10195C00F6D00020ADE60421214B1A6A0A431A6224
:10196C001A6A03390A431A625AE6012B00D19FE620
:10197C00C0226B68A06A5202E96A1A40824200D007
:10198C0096E60F220A40216B8A4200D090E6F020A6
:10199C0080030340E06A181A431E9841C0B288E6DF
:1019AC0004210F4D02266B6B0B436B636B6B1A435D
:1019BC006A63FEF761FD070005E0FEF75DFDC01BE5
:1019CC00022800D900E76B6B1E42F6D0F8216A6B37
:1019DC00A3698A43DB0013436B6323684FE6C0465D
:1019EC0000100240FFFFFEFFFFFFFBFF881300000B
:1019FC00FFFFFFFEFF7FC2FF70B588B069461C4B2E
:101A0C000A00180070C870C200681033106004AA75
:101A1C00100070CB70C01B68164D03600C206B68F7
:101A2C00184008280AD00C3843425841124B404207
:101A3C001840124B9C46604408B070BD0F209C0CA3
:101A4C0004400C5DE96A0840115CC02280205202FF
:101A5C0013404002834201D0934204D00748FEF762
:101A6C0053FB6043E8E70648FEF74EFB6043E3E7B1
:101A7C007C51010800100240005A620200127A00E8
:101A8C00006CDC02F8B5CE464746040080B50D006C
:101A9C0000280DD001233F490A681A40AA420CD2F3
:101AAC000A689A432A430A600A681340AB4204D07E
:101ABC0001200CBC90469946F8BD23689A070ED5B8
:101ACC005A0705D5E0223449D200486802434A60DF
:101ADC00F02031494A688243A06802434A60DB0720
:101AEC0023D563682C4A012B45D0022B49D0032BFC
:101AFC004BD012689207DBD50321274E0C27726856
:101B0C008A4313437360FEF7B7FC244B8146984617
:101B1C0005E0FEF7B1FC4B46C01A40452FD8726861
:101B2C0063683A409B009A42F3D10121194A136829
:101B3C000B40AB4205D913688B43136013681942F1
:101B4C00B6D123685B0706D5134A154953680B4079
:101B5C00E1680B435360FFF74FFF0F4B114A5B6873
:101B6C001B061B0FD35CD8400F4B18600020FEF7F0
:101B7C0041FC00209DE712689203BDD498E7032036
:101B8C0097E712689201B7D492E7526BD203B3D4A1
:101B9C008EE7C0460020024000100240881300006F
:101BAC00FFF8FFFFB851010858010020044B054A0B
:101BBC005B685B055B0FD35C034A1068D8407047C9
:101BCC0000100240C851010858010020F0B5CE4663
:101BDC00474680B5036883B00400DA0336D580220B
:101BEC00494B5205D9690027114207D1D9690137F0
:101BFC001143D961DB691A400192019B8026434D48
:101C0C0076002B68334254D0C0213F4D89002A6A9C
:101C1C0060680A4011D0014091420ED08022296A9E
:101C2C002E6A520232432A622A6A394B394E0B40D1
:101C3C0032402A622B62CB0754D4334A3449136A9C
:101C4C000B4003431362012F44D02368DA0706D5F7
:101C5C0003202D490A6B8243A06802430A639A074A
:101C6C0006D529492C480A6B0240E06802430A63F6
:101C7C005A0306D5244929480A6B024020690243BD
:101C8C000A639A0606D510201F490A6B82436069C5
:101C9C0002430A6300205B0506D540211A4A136BE8
:101CAC008B43A1690B43136303B00CBC904699465C
:101CBC00F0BD2B6833432B60FEF7DEFB804605E05E
:101CCC00FEF7DAFB4346C01A642809D82B68334266
:101CDC00F6D099E7D36912490B40D3612368B5E775
:101CEC000320E1E7FEF7C8FB0E4B8046022699461F
:101CFC0005E0FEF7C1FB4346C01A4845F0D82B6AF5
:101D0C001E42F6D0606898E7001002400070004058
:101D1C00FFFCFFFFFFFFFEFFFFFFFCFFFFFFF3FFDA
:101D2C00FFFFFFEF88130000012270B57325036AD3
:101D3C0093430362036A42688469AC430D682C4385
:101D4C000225AB438D682B430E4DA84208D00E4D97
:101D5C00A84205D00D4DA84202D00D4DA8420BD182
:101D6C000825AB43CD688E692B430425AB43094D45
:101D7C002A404D6935432A4342604A688461426374
:101D8C00036270BD002C0140004001400044014042
:101D9C0000480140FFFCFFFF70B57324036A174A2B
:101DAC0013400362036A4268C569A5430C68254366
:101DBC00134C23408C6824022343124CA04215D0B0
:101DCC00114CA04205D0114CA04202D0104CA042A4
:101DDC0006D1104C4E6914408A69324312012243D9
:101DEC0042604A68C561C263036270BD0A4C1C4004
:101DFC00CB681B022343094C2340EAE7FFFEFFFF9D
:101E0C00FFFDFFFF002C0140004001400044014059
:101E1C0000480140FFCFFFFFFFF7FFFFFFFBFFFF75
:101E2C00036A144A30B513400362026A124D4368C8
:101E3C00C4692C400D682D022C43104D15408A6846
:101E4C0012032A430E4DA84208D00E4DA84205D0CD
:101E5C000D4DA84202D00D4DA84204D10C4D2B4083
:101E6C004D69AD012B4343604B68C461036402624E
:101E7C0030BDC046FFEFFFFFFF8CFFFFFFDFFFFF12
:101E8C00002C01400040014000440140004801404A
:101E9C00FFBFFFFF01210368DA688A43DA60186A22
:101EAC00054A104206D1186A044A104202D11A6837
:101EBC008A431A600020704711110000440400008E
:101ECC0010B51F240C400121A14003681A6A8A43F3
:101EDC001A621A6A1A62154A934219D0144A93422A
:101EEC0016D0144A934213D0134A934210D0196A55
:101EFC00124A114207D1196A114A114203D1012128
:101F0C001A688A431A603D230122C254002010BD76
:101F1C00196A0A4A1142EAD1196A094A1142E6D1F0
:101F2C005A6C08490A405A64E1E7C046002C01404B
:101F3C0000400140004401400048014011110000E4
:101F4C0044040000FF7FFFFF7047C0467047C04647
:101F5C007047C0467047C0460222036810B5196925
:101F6C0004000A4202D0D9680A4265D104221969D8
:101F7C000A4202D0D9680A424BD1082219690A4296
:101F8C0002D0D9680A4233D1102219690A4202D010
:101F9C00D9680A421CD1012219690A4202D0D968B7
:101FAC000A425CD1802219690A4202D0D9680A42DD
:101FBC005CD1402219690A4202D0D9680A425DD12B
:101FCC00202219690A4202D0D9680A4241D110BDB7
:101FDC00213A1A6119322277DA69C0239B0020005A
:101FEC001A425ED0FFF7B2FF002323772368D2E7B3
:101FFC00113A1A61DB690D32227720009B074DD113
:10200C00FFF7A2FF2000FFF7A3FF0023237723682D
:10201C00BAE7093A1A61073222779A69C0239B0002
:10202C0020001A4237D1FFF78FFF2000FFF790FFF7
:10203C00002323772368A0E7053A1A619B690432D1
:10204C0002779B0721D0FFF781FF002323772368BA
:10205C008CE7413A1A61200000F0D0F9B7E7033A57
:10206C001A61200001F0F8FD23689BE7023AFF3A61
:10207C001A61200000F0C4F923689AE7813A1A61CA
:10208C002000FFF767FF23689AE7FFF75DFF20004A
:10209C00FFF75EFFD9E7FFF759FFC9E7FFF756FFD8
:1020AC00B3E7FFF751FF2000FFF752FF9CE7C04654
:1020BC002A4A70B503684E698D680C68904232D01C
:1020CC008022D205904215D0254A904212D0254A42
:1020DC00904237D0244A904229D0244A904226D0AC
:1020EC00234A904223D08022934333430360C5623A
:1020FC00846215E0702293434A6813431D4A1340CF
:10210C00CA6813438022934333430360174BC56261
:10211C008462984202D0164B984201D10B6903633A
:10212C000123436170BD702293434A681343114AE3
:10213C001340CA6813438022934333430360C56240
:10214C008462EBE70B4A1A40CB681A4380239A430C
:10215C0032430260C5628462E2E7C046002C014053
:10216C0000040040002000400040014000440140B9
:10217C0000480140FFFCFFFF70B5041E14D03D2346
:10218C00C35CDBB2002B0AD002233D2520686355CB
:10219C00211DFFF78DFF01230020635570BD3C22EC
:1021AC00835401F09BFFEFE70120F7E770B5041EA5
:1021BC0014D03D23C35CDBB2002B0AD002233D2597
:1021CC0020686355211DFFF773FF01230020635521
:1021DC0070BD3C22835401F061FFEFE70120F7E76B
:1021EC001022036A70B593430362026A164C43686B
:1021FC00856925400C68240225432024A2438C6861
:10220C0024012243114CA04215D0114CA04205D000
:10221C00104CA04202D0104CA04206D10F4C4E697B
:10222C001C408B6933439B00234343604B6885619F
:10223C008363026270BD8024A2431400CA68120139
:10224C0022434024A243E9E7FF8CFFFF002C01400E
:10225C00004001400044014000480140FFF3FFFFF3
:10226C003C2370B51500C25C04000E00012A38D066
:10227C000122C25401330132C254042D43D01DD962
:10228C00082D30D00C2D11D10068FFF7C9FD80222C
:10229C0023681201D9690A43DA61DA6923490A40D1
:1022AC00DA613269D96912020A43DA613D230122EB
:1022BC00E25400220020013BE25470BD002DF5D108
:1022CC000068FFF731FD082123689A690A439A6177
:1022DC009A6904398A439A619A6931690A439A6105
:1022EC00E4E70220E9E70068FFF756FD04212368C4
:1022FC00DA691543DD61DA698A43DA61DA693169D1
:10230C000A43DA61D2E70068FFF76AFF802223688C
:10231C00120199690A439A619A6904490A409A61BF
:10232C003269996912020A439A61BFE7FFFBFFFF0A
:10233C003C2330B5C25C012A26D001227025C25440
:10234C0001330132C25403685A689C68AA430D6871
:10235C002A435A600D4A934209D08022D2059342F7
:10236C0005D00B4A934202D00A4A934204D18022F0
:10237C0094434A6814439C603D230122C2540022BA
:10238C00013BC254002030BD0220FCE7002C014070
:10239C0000040040004001403C2210B5835C012B3E
:1023AC001ED0CC680F4B23408C6823430E4C23402B
:1023BC004C6823430D4C23400C6823430C4C2340A6
:1023CC000C6923430B4C23404C69C96923430A4CC9
:1023DC0023400B4301684B6400238354002010BD41
:1023EC000220FCE7FFFCFFFFFFFBFFFFFFF7FFFFF7
:1023FC00FFEFFFFFFFDFFFFFFFBFFFFF7047C04690
:10240C007047C04670B504002569A26823682A434A
:10241C0065691968C0692A436D4D024329400A4316
:10242C001A605A686B49256A0A40E1680A435A6087
:10243C00A26999682A43684D29400A439A60674A01
:10244C00934255D0664A934214D0664A934200D1C7
:10245C009EE0654A934230D0644A93422DD0644A40
:10246C0093422AD0634A934227D0634A934224D0A2
:10247C00012039E0C0218022604B89021B6B520283
:10248C000B40934256D016D980229202934200D12F
:10249C008EE08B42ECD180231B02984200D16CE081
:1024AC0063685808564B9C4661686044FDF72CFEE7
:1024BC000004000C10E0002BDAD180231B029842A0
:1024CC0000D17DE0FFF772FB636861685B08181848
:1024DC00FDF71AFE0004000C03004A4A103B93421D
:1024EC00C6D82368D860002000232366636670BDBD
:1024FC00424B1A6B03231340434AD35C80221202D3
:10250C0090420BD0022BCBD05DD9042B16D0082BCC
:10251C00AED16368580880231B02C4E7022B2CD071
:10252C004BD9042B0DD0082BA2D1636858088023FB
:10253C005B0225E080231B02984202D0FFF75CFA75
:10254C00C2E7FFF759FA636840005B08C01861687E
:10255C00FDF7DAFD0004000C03002A4A103B9342FD
:10256C0000D985E70F2302009A4313000007226865
:10257C00400F1843D0600020B6E763685808234B1F
:10258C009C4661686044FDF7BFFD0004000CE3E766
:10259C00C0218022194B09031B6BD2020B409342C2
:1025AC00C8D000D887E780221203934200D070E78E
:1025BC0080231B029842ACD1B7E7002B00D057E721
:1025CC00FFF7F4FABFE7002B00D17BE701208BE784
:1025DC00F369FFEFFFCFFFFFFFF4FFFF003801406F
:1025EC000044004000480040004C004000500040B7
:1025FC000014014000180140001C01400010024072
:10260C0000127A00EFFF00009C5101080024F40036
:10261C00436A30B5DA0706D50168284C4A6822406F
:10262C00846A22434A609A0706D50168244C4A689A
:10263C002240C46A22434A605A0706D50168214CDD
:10264C004A682240046B22434A601A0706D5016887
:10265C001D4C4A682240446B22434A60DA0606D578
:10266C0001681A4C8A682240846B22438A609A065D
:10267C0006D50168164C8A682240C46B22438A60D6
:10268C005A060AD50168134D4A68046C2A40224345
:10269C004A6080225203944209D01B0606D5026878
:1026AC000D4953680B40816C0B43536030BD4A6835
:1026BC000A4C2240446C22434A60EEE7FFFFFDFFC8
:1026CC00FFFFFEFFFFFFFBFFFF7FFFFFFFEFFFFFA3
:1026DC00FFDFFFFFFFFFEFFFFFFFF7FFFFFF9FFF96
:1026EC00F0B54646984604234F46D6469946802375
:1026FC00C0B51B01160007000C00089D02689A4625
:10270C0001E06B1C0CD1D36923401B1B59424B417C
:10271C00B342F6D000201CBC90469946A246F0BDB0
:10272C00FDF7AAFE43463A68C01AA8421CD8002DF1
:10273C001AD0494613681942E5D05146D3690B4269
:10274C00E1D011621368114903200B4013609368A8
:10275C00A331FF318B439360202300227B67BB673F
:10276C00FB675033FA54D6E71368084903200B4033
:10277C0013609368A331FF318B43936020230022B5
:10278C007B67BB675033FA54C5E7C0465FFEFFFF5B
:10279C00002330B50400C36783B0FDF76DFE2368DA
:1027AC0005001A6812070BD41B685B0717D420238B
:1027BC00002200206367A3675033E25403B030BD9E
:1027CC0080210D4B00220093890303002000FFF7AA
:1027DC0087FF00280ED123681B685B07E7D5802193
:1027EC00054B00220093C9032B002000FFF778FF54
:1027FC000028DCD00320E1E7FFFFFF0110B5041E29
:10280C0027D0436F002B1FD024230121226863673C
:10281C00136820008B431360FFF7F4FD012818D0D8
:10282C00636A002B17D123680D495A6820000A40AF
:10283C002A215A609A688A439A601A6829390A438D
:10284C001A60FFF7A5FF10BD7022835401F09AFCAB
:10285C00DAE70120F7E72000FFF7DAFEE3E7C046EE
:10286C00FFB7FFFF084B1B68002B0AD05A7B187B65
:10287C0012020243987B00040243D87B00061043EB
:10288C0070470020FCE7C046D0010020F8B50500D9
:10289C000C0016001F00052800D9F8BD012000F01F
:1028AC0043FE0028F9D00570002E0BD0721E2100BB
:1028BC0092B20134831CA4180A7801311A700133C6
:1028CC00A142F9D13B003200012100F057FDE4E7B1
:1028DC0070B50400FDF7D0FD0F4D04190F4E08E044
:1028EC0000F096FD00F0B2FD01F038FB2B78002BC8
:1028FC0004D1FDF7C1FDA042F2D370BDFDF7BCFDC4
:10290C0033689842F5D3BFF34F8F054B054ADA6015
:10291C00BFF34F8FC046FDE7E1010020E40100202A
:10292C0000ED00E00400FA05020010B54001801A29
:10293C0080008018C000FFF7CBFF10BD00B50A4B1C
:10294C0083B01B785BB25A1C02D08278012A02D069
:10295C00002003B000BD02304178DBB2009202319E
:10296C00053200F01DFEF3E74801002070B50400AD
:10297C0088B0002823D08078202828D021282CD07B
:10298C00012811D002281CD07E2841D0802800D1EB
:10299C0088E07D2800D19BE0C31E1C2B5DD8042849
:1029AC0000D082E0002008E0E17800F03FFA20003F
:1029BC000422042101F0A4FE002008B070BDFF2009
:1029CC00FBE7E1780A2900D90A210220EDE76279B8
:1029DC002179E07800F0A2FAE9E705220421200031
:1029EC0001F08EFEE37822791B0612049B186279A3
:1029FC0012029B18A2799B183F4A1360FDF73CFD0D
:102A0C00FA239B009C463D4B604418600020D4E7A1
:102A1C003B4D2B68002BC5D0042000F085FD002811
:102A2C00C0D023780370002343667F3383702968FA
:102A3C000500C31C433504C9140E1C70140C5C70C7
:102A4C00140A9C70DA700433AB42F4D10123412296
:102A5C00042100F093FC0020AFE722283BD0232870
:102A6C00A0D1242302AE30003380FDF745FB0500D6
:102A7C000C222449301802F05EFB2B002800202287
:102A8C000B330C30F2542049173A301802F053FB38
:102A9C0001222378162100923000033200F080FDD1
:102AAC0000208AE700F0B8F981E7E178237909067C
:102ABC001B04C91863791B02C918A379C91800F043
:102ACC00B5F920000522042101F01AFE002074E75C
:102ADC0000F098F96BE701220421200001F010FEB0
:102AEC0001220A4B1A70FDF7C7FC094BF530FF3079
:102AFC001860002061E7C046DC010020381D002072
:102B0C00D0010020A0510108AC510108E1010020C6
:102B1C00E401002070B584B006000D00FDF768FFDD
:102B2C000124002807D0FDF777FF002800D00124EE
:102B3C00200004B070BD0190694601A8029603956F
:102B4C00FEF702F8441EA041C4B2ECE7F0B5C6464D
:102B5C002A4E00B535686A782B7812021A43AB7886
:102B6C001B041A43EB781B06134340D00024FDF7DB
:102B7C003FFF32680220537811781B020B43917887
:102B8C0009040B43D1782A59090619431C4B9C465E
:102B9C0061448901091900230434FDF771FFFDF725
:102BAC003BFF402CE3D1316840224C780B78240257
:102BBC001C438B781B042343CC78240623431F240B
:102BCC0001331C400F4BA7019846FD18280002F05A
:102BDC00B2FA4346DC55002300226B70AB700A4BF3
:102BEC00240E3560EC701A7004BC9046F0BD0121C7
:102BFC000648FFF78FFF3568B8E7C046D0010020C4
:102C0C00E001200058020020CC01002000780008D0
:102C1C00F8B58022CE464746744C120180B57449F3
:102C2C00200002F088FA41224023A25CE35C1202ED
:102C3C001A434223E35C01251B041A434323E35C40
:102C4C0002201B061343012B07D021E00135EDB206
:102C5C00461C1F2D00D1AAE030008301E75CE3186D
:102C6C005A780600120217439A78DB7812043A431A
:102C7C001B06411E13438342E8D05E4B1F789846D7
:102C8C00002F2DD0FFF762FF0CBC90469946F8BD83
:102C9C00594B62781C60237812021A43A3781B04E8
:102CAC001A43E3781B06134378D000238022237049
:102CBC006370A370E37023716371A371E37163722A
:102CCC00A372E37223736373A373E3732374A37408
:102CDC000833E374474B5242257262741D70D1E77E
:102CEC001F231E40B3019946E5188901424B40222F
:102CFC00611828001D6002F01EFA4B46E6540023B2
:102D0C006A796B70AB702B7912021A43AB79360E61
:102D1C001B041A43EB79EE701B061343012B06D9E7
:102D2C00012342462F716F71AF71EF7113704B46D7
:102D3C00E11808004A7A0B7A12021A438B7A08308F
:102D4C001B041A43CB7A1B0613430A2B37D90A23CD
:102D5C000B720023424643708370C37001331370AF
:102D6C004A7C0B7C12021A438B7C1B041A43CB7CCF
:102D7C001B061343214A9446214A6344934200D8CC
:102D8C0080E700224C4422748021A2740832E27441
:102D9C000123424649426174137073E7154B0126B7
:102DAC001F7800219846002F00D06BE798E7114B55
:102DBC0001001F789846002F00D063E790E74A7C0B
:102DCC000B7C12021A438B7C1B041A43CB7C1B0614
:102DDC0013430A4A94460A4A63449342D1D8434661
:102DEC001B78002B00D14FE74CE7C046580200205F
:102DFC0000780008CC010020D00100200080FFF7F3
:102E0C00FF7F010010B501210248FFF783FEFFF799
:102E1C00FFFE10BD0078000810B5034B1B78002B8B
:102E2C0001D0FFF793FE10BDCC0100200F280AD86B
:102E3C00054B80001B68181803688B4203D00122D5
:102E4C00024B01601A707047D0010020CC010020A9
:102E5C0070B5FA2684B0144D144B03AC7600238065
:102E6C0022000096022398212800FEF75DF9052325
:102E7C002200238098210096033B2800FEF754F98A
:102E8C000B4B220023809821009602232800FEF78A
:102E9C004BF9084B2200238098210096022328002E
:102EAC00FEF742F904B070BDEC19002007180000C1
:102EBC0006EFFFFF0719000070B584B0402801D061
:102ECC0004B070BDFA260023114D03AC76002370BC
:102EDC0022000133982100962800FEF725F90423DF
:102EEC002200992100962800FEF7D2F93F23217881
:102EFC00084A19401170617819405170A1780B4043
:102F0C009370E378D3700122034B1A70D8E7C04654
:102F1C00EC190020580A0020680A0020F0B54F4632
:102F2C00D6464646C0B54C4B84B01C788A46914672
:102F3C0003AF9846FF2C00D1C03C031C642800D979
:102F4C0064235246DBB25646642A00D964264A46AC
:102F5C00F6B24D46642A00D96425404AEDB2117888
:102F6C00994204D0137000285ED133231C403C4B93
:102F7C001A78B24205D01E705346002B3CD10F3349
:102F8C001C40384B1A78AA4205D01D704B46002BBA
:102F9C001AD13C331C4043461B78A3420ED0434607
:102FAC001C7003233B70F233FF337C700093F33BB4
:102FBC00FF3B3A00CC212C48FEF7B6F804B01CBC01
:102FCC0090469946A246F0BD03231C430023013DC5
:102FDC00A8004019C0003B70401B6321FDF71EF98F
:102FEC00FA235B0078700093F33BFF3B3A00CC2153
:102FFC001D48FEF799F8CEE730231C430223013E0F
:10300C00B0008019C0003B70801B6321FDF706F9EE
:10301C00FA235B0078700093F33BFF3B3A00CC2122
:10302C001148FEF781F8ACE70C2214430122013B56
:10303C009800C018C0003A70C01A6321FDF7EEF872
:10304C00FA235B0078700093F33BFF3B3A00CC21F2
:10305C000548FEF769F88AE71901002018010020DD
:10306C001701002016010020EC19002010B51221C8
:10307C00FDF7D0F8C9B205484B005B18C1188A7827
:10308C00185C4978FFF74AFF10BDC046E0000020ED
:10309C0000220021054B1A710132D2B219705970FD
:1030AC009970D9701033202AF5D170476C0A002022
:1030BC00F0B557464E46DE464546E0B5AD4BA1B0A1
:1030CC0001910700994619680024012202E001349D
:1030DC00202C3AD00B00E3401340F8D1A2400A4315
:1030EC0049460A60A44A24019046A246C24413559C
:1030FC005246537193600433534456469B46002505
:10310C003100380001F0B4FB00286AD03378EA03B0
:10311C009B186D085D190136ADB25E45F0D1A34622
:10312C004346C3445A461B5D56785AB2002A5DDBAF
:10313C00082E11D05B461B791F2B06D801229A4012
:10314C004B461B6893434A46136021B03CBC9046E7
:10315C009946A246AB46F0BD06AE3100380001F0F0
:10316C0087FB00283DD03378310038009A4601F0B7
:10317C007FFB002835D0337831003800019301F003
:10318C0077FB0028D6D0337831003800029301F059
:10319C006FFB0028CED0019A6B0894465344ED0384
:1031AC00029A5B199BB25808110232786044DB0317
:1031BC0052181B1892B29BB29A4212D15B46DB7822
:1031CC001B014344D86800F0A3F95B46DA781F2A48
:1031DC0007D8012393404A4612689A4313004A4683
:1031EC001360444423791F2BAFD8A7E70322134065
:1031FC001B029E195B46987800F096F95B46D860E6
:10320C0000285AD0B31E029304260421042B2BDD74
:10321C0052460B00A246010003923C000EE05B46B6
:10322C00D9686B08CF19BA78ED03D2185519013645
:10323C00029AB6B2ADB23300964211DA1F1F023BAE
:10324C00C918200001F014FB0028E8D1544644446E
:10325C00E06800F05DF923791F2B00D975E76DE765
:10326C00039B270054469A4604ABD91D380001F045
:10327C00FFFA0028EBD004ABD91D3800DE7901F041
:10328C00F7FA002835D0A346C3445A4604ABDB7981
:10329C0036029B199BB2D768AB423BD012791F2ADE
:1032AC0007D8012393404A4612689A4313004A46B2
:1032BC001360380000F02CF947E71B791F2B06D858
:1032CC0001229A404B461B6893434A461360042ED6
:1032DC0000D83AE7042404E00134A4B2A64200D199
:1032EC0033E704ABD91D380001F0C2FA0028F3D142
:1032FC002BE74444E06800F00BF922791F2A00D92F
:10330C0023E7012393404A4612689A4313004A4626
:10331C0013601AE743461B5D5B0617D580231B0120
:10332C0013800021642207A801F00EFFFF2306AED4
:10333C0073705B46DE602B0AB3705A460123019909
:10334C00537150463170F57001F0DAFA4444227929
:10335C001F2A07D8012393404A4612689A43130048
:10336C004A461360019B38003B707B6E1B68984784
:10337C009FE7C046D40100206C0A0020F8B5CE4669
:10338C004746994680B5002831D01F4B00259846FA
:10339C001F68012602E00135202D32D03C00EC40A4
:1033AC003440F8D13300AB401F4343461F60174FE6
:1033BC002D017B199C465C719C604B4606327C55FA
:1033CC0092B2012B17D063465E7180237C5D5B4209
:1033DC0023439405A40F23437B557D192B79A970A6
:1033EC00E86001786A70EB70604601F089FA0CBCF9
:1033FC0090469946F8BD402364467B553D3B63712E
:10340C00E3E70023DB68FFDED40100206C0A002018
:10341C00F8B5972700240B4D7F000B4E02E00134CA
:10342C00062C0ED02A191378E1B2002BF7D03800F5
:10343C006043013B137080190134FFF739FE062CF1
:10344C00F0D1F8BD28020020142A0020F0B5D64691
:10345C0046464F46C0B5FDF70FF81F4D80466B1F13
:10346C0000241E4F01269A460EE0884508D9EB1D14
:10347C001B68002B04D020011978504401F040FA4D
:10348C0001341035202C21D03B681A00E240164242
:10349C00F6D0EA1C11682A78002AE6D18845EFD9C3
:1034AC00E91D08680A603200A240934381463B60E4
:1034BC000028E5D0436E9B68002B00D09847484607
:1034CC00013400F025F81035202CDDD11CBC9046C1
:1034DC009946A246F0BDC046710A0020D4010020D6
:1034EC000388DA035B085918511801807047C046ED
:1034FC007047C0467047C0460023044A137001331E
:10350C00DBB26832202BF9D17047C0466D0C00201D
:10351C0043781F2B05D801229A4002490B6893432C
:10352C000B607047D801002070B5174E002334682B
:10353C00012102E00133202B17D02200DA40DDB24A
:10354C001142F7D1994022000A43326068225A4353
:10355C000E4B9B185D7006280DD0042807D001284F
:10356C000CD002280DD08C433460002301E0084AB3
:10357C005A66180070BD074A5A66FAE7064A5A6638
:10358C00F7E7064A5A66F4E7D80100206C0C0020D5
:10359C00D4000020C80000201C0100204C01002099
:1035AC00F8B5CE46474680B51C0008AB1B78814663
:1035BC000E0015009846052C04D900200CBC904632
:1035CC009946F8BD1000FFF7AFFF071EF5D0047049
:1035DC0032004946023001F0AEFD3800434632005D
:1035EC002900FFF7CBFE0120E8E7C04610B598B0E4
:1035FC002C2200210DA801F0A7FD10220021684605
:10360C0001F0A2FD1C22002104A801F09DFD132352
:10361C000B93123B0C930E93109301331493802352
:10362C005B021593802310245B030BA80F94119459
:10363C001693FDF73DFF002825D107230093053B8A
:10364C00019300230121684602930393FEF71AFAB3
:10365C00002812D10F4B04A8049300230693079360
:10366C0008930993FEF7B2FA002804D00022002137
:10367C003220FFF753FC18B010BD0022002132207D
:10368C00FFF74CFCE6E7002200213220FFF746FC56
:10369C00D3E7C04623000400F0B597B0FCF7D0FE8A
:1036AC0072B6EB4BEB48EC4A9A1802CB1160834292
:1036BC00F9D1FFF79BFF012301260025E74C5B4264
:1036CC00A362A3693343A361A36933400193019BB4
:1036DC00A562BFF34F8F0320E14B1968814319603A
:1036EC001A6802431A60BFF34F8FBFF36F8F0C221F
:1036FC00002110A801F028FD80216269C9030A434A
:10370C006261636990200B4080210293029B626985
:10371C0089020A4362616369C0050B4080210393EF
:10372C00039B6269C9020A43626163690B4004939B
:10373C00049B40230E93CB4B0EA90F93FDF770FA0D
:10374C00002200210720FDF7E1F80720FDF70AF918
:10375C000C2200210EA801F0F7FCC34CC34B200037
:10376C00236004236361C223FF33E3619E3BFF3B71
:10377C006560A560E560266125766576A676E576BA
:10378C002562E554A662FCF7D1FE002800D0E7E1E3
:10379C008022072352010EA920000E930F92109342
:1037AC00FDF724F8002800D0E6E12000FCF76AFFC2
:1037BC00AF4CB04B01222360AF4B20006360002361
:1037CC00E260A36023616361A361E3612362FDF79F
:1037DC0053FC002800D0C9E100212000FDF70CFEAD
:1037EC00002800D0F8E100212000FDF733FE00286E
:1037FC0000D0EBE10822002105A801F0A5FC1C2259
:10380C00002107A801F0A0FC202200210EA801F045
:10381C009BFC9A4C9A4B2000236000236360A360AE
:10382C00E360236163618033A361FEF7BFFC002872
:10383C0000D0C5E1002305A9200005930693FEF7EF
:10384C0077FD002800D0B5E1602307930023002208
:10385C0007A92000089309930A930B930C930D93DB
:10386C00FEF7FEFC002800D0E6E180220023920146
:10387C000EA920000E930F93109311931293139291
:10388C001593FEF789FD002800D0CFE1200000F051
:10389C0051FC7C4C7C4B0C222360E1235B0263606B
:1038AC0000232000A360E36023616261A361E361F4
:1038BC0023626362FEF7A2FF002800D0B0E1202152
:1038CC002268724C136820000B431360704B0C225F
:1038DC002360E1235B02636000236261A360E36009
:1038EC002361A361E36123626362FEF787FF002813
:1038FC0000D08FE120212268664C136820000B4316
:10390C001360654B0C222360E1235B026360002390
:10391C006261A360E3602361A361E361236263627C
:10392C00FEF76CFF002800D06EE1202122685B4C72
:10393C00136820000B431360594B0C222360E123C6
:10394C005B02636000236261A360E3602361A36197
:10395C00E36123626362FEF751FF002800D04DE162
:10396C00202122684F4C136820000B4313604E4BF0
:10397C000C222360E1235B02636000236261A3607D
:10398C00E3602361A361E36123626362FEF736FFA8
:10399C00002800D02CE120212268444C1368200020
:1039AC000B431360424B0C222360E1235B026360E8
:1039BC0000236261A360E3602361A361E36123627E
:1039CC006362FEF71BFF002800D00BE12021226868
:1039DC0013680B431360FFF73BFA082200210EA873
:1039EC0001F0B2FB334C344B2000236000236360A6
:1039FC00A360E360A361FEF7BFFB002800D0D3E017
:103A0C0000230EA920000E930F93FEF791FC0028C3
:103A1C0000D0C3E0082200210EA801F095FB274C32
:103A2C00274B2000236000236360A360E360A36145
:103A3C00FEF7A2FB002800D0AAE000230EA920006C
:103A4C000E930F93FEF774FC002800D09AE039E037
:103A5C0000000108C00001080000FF170010024020
:103A6C0000000140000011103C1D0020002401400A
:103A7C00EC190020005400400E090020781B002097
:103A8C00002C0140B81A002000380140B81C00205E
:103A9C00004400406C19002000480040381C0020F5
:103AAC00004C0040381A002000500040B81B002089
:103ABC0000140140381B0020001000407C1D002029
:103ACC000014004062B6FFF7A3F80022002100208A
:103ADC00FFF724FA00F0B4FEFFF7DAFAFFF70CFD5B
:103AEC0000F01CFAFFF794F8FCF7C6FC0600FA3657
:103AFC003230050004E0FCF7BFFC040085422BD3F8
:103B0C00FCF7BAFCB042F6D3FCF7B6FC01F0A2F815
:103B1C0001224C4B4C4F4D4E1A70FCF7ADFC04007F
:103B2C00FFF776FCFFF792FCA54210D300F0C0FF24
:103B3C003B78002BF1D03368A342EED8BFF34F8F04
:103B4C00434B444ADA60BFF34F8FC046FDE7250074
:103B5C0000F004FA3235E9E700F000FA2000C7E77C
:103B6C002A0029003220FFF7D9F911E60022322071
:103B7C001100FFF7D3F92FE6002232201100FFF7D6
:103B8C00CDF912E6002232201100FFF7C7F999E7B0
:103B9C00002232201100FFF7C1F94EE7002232203B
:103BAC001100FFF7BBF935E7002232201100FFF7B7
:103BBC00B5F925E7002232201100FFF7AFF943E6F3
:103BCC00002232201100FFF7A9F933E6002232203F
:103BDC001100FFF7A3F90DE6002232201100FFF7C8
:103BEC009DF900E6002232201100FFF797F9EDE66F
:103BFC00002232201100FFF791F9CCE6002232208E
:103C0C001100FFF78BF9ABE6002232201100FFF711
:103C1C0085F98AE6002232201100FFF77FF969E668
:103C2C00002232201100FFF779F948E600223220F9
:103C3C001100FFF773F929E6002232201100FFF77B
:103C4C006DF912E6E0010020E1010020E401002002
:103C5C0000ED00E00400FA05074B10B5984202D0C5
:103C6C00064B984200D010BDFEF714F90021044811
:103C7C00FEF726F9F7E7C0467C1D0020381B002014
:103C8C00781B0020F8B5CE4647464F4D4F4C2B883D
:103C9C0080B52380FCF732FD4D4B80B21A8828800A
:103CAC00824200D218804B4B1A88824200D918806D
:103CBC000122494B1A70494A138898424DD91080F9
:103CCC002288474B9A423FD898423DD94549801AA1
:103CDC000A8880B2831A05330A2B46D8424E434ACF
:103CEC00337894465D005053414A424C17886753D1
:103CFC0000251580002B56D02588A846ED1B052DD8
:103D0C0046DC65462D882D1A05350A2D40D8013B19
:103D1C00DBB201335B0099460025002101E0635BB7
:103D2C0098464144023589B24D45F8D1324B278033
:103D3C001980324B1980634618800123002133709F
:103D4C002F4B1980012303E0294A138801339BB2BE
:103D5C0013800CBC90469946F8BD012B02D9013B4F
:103D6C001380ADE700231380AAE7904220D8244C9F
:103D7C001F4A20881388013080B2013320809BB207
:103D8C000928E5D90020184D208028700880DFE72D
:103D9C000133DBB2092B14D900231948337003808B
:103DAC000B800133D4E716490B8001333370CFE716
:103DBC000022134B08801A800B4B1A7001230C4AFB
:103DCC00C6E733700123C3E7EE010020F2010020A7
:103DDC00220200202801002024020020EA010020F9
:103DEC0097080000EC010020E8010020F4010020FD
:103DFC00080200200C02002020020020BC1D002024
:103E0C00F0010020F8B58027C3011B185B001B18BC
:103E1C00124A5B00D318124ABF009D182A88DF197A
:103E2C00561C3F880400F005C00DB8420BD0802012
:103E3C00D205D20D99540B4BA200D3582E801A6880
:103E4C001368034313602E2902D0482900D0F8BD13
:103E5C00FCF712FB044BA400E050F8E7F01D002027
:103E6C00020200002C010020C01D002070B50500CE
:103E7C000C002E290CD0482904D02100280000F079
:103E8C0081FC70BDFCF7F8FA044BAD00E850F8E784
:103E9C00FCF7F2FA014AAB009850EEE7D81D00206F
:103EAC000068104B984212D00F4B984213D00F4B16
:103EBC0098420ED00E4B98420FD00E4B98420ED01B
:103ECC000D4B9C466044431E9841053070470020C2
:103EDC00FCE70220FAE70120F8E70320F6E70420CC
:103EEC00F4E7C04600380140004400400048004060
:103EFC00004C00400050004000ECFEBF03000528C1
:103F0C0007D8C001C0184000C018034B4000C018AF
:103F1C0070470020FCE7C046F01D002010B5FCF7F0
:103F2C00ABFA00230349044AC850D0500433182B71
:103F3C00FAD110BDD81D0020C01D002010B5040002
:103F4C00FCF79AFA044BA400E2580023FA3282429E
:103F5C005B41D8B210BDC046D81D0020F8B5002476
:103F6C000A4F02E00134062C0ED0A300FD58E6B235
:103F7C006435FCF781FA8542F4D2482130000134D3
:103F8C00FFF740FF062CF0D1F8BDC046C01D002045
:103F9C0001220A4B82B099691143996199690A40CF
:103FAC0080210092009ADA6949050A43DA61DB69DB
:103FBC000B400193019B02B07047C04600100240B9
:103FCC0010B5040088B01422002103A801F0BCF83D
:103FDC00154B22689A4201D008B010BD8020134BBB
:103FEC00800099690143996180219A698902024094
:103FFC000192019A5A6990200A435A615B69C00583
:10400C000B400293029B802303A903937D3B0493F3
:10401C00FCF706FE002200210C20FCF777FC0C209C
:10402C00FCF7A0FCD8E7C046002401400010024079
:10403C0010B5040088B01422002103A801F084F804
:10404C00134B22689A4201D008B010BD8021114C4C
:10405C00C902626910480A436261636903220B401A
:10406C000193019BC0239B000393122303A9049388
:10407C00113B059306920793FCF7D2FD8021E26970
:10408C0089030A43E261E3690B400293029BDBE77D
:10409C0000540040001002400004004800B50D4BD5
:1040AC00026883B09A4201D003B000BD80200A4A56
:1040BC0000019169014391619369002103400193CF
:1040CC0000220D20019BFCF721FC0D20FCF74AFC83
:1040DC00EAE7C046002C01400010024000B503681E
:1040EC00114A83B093420DD0104A934208D1202339
:1040FC000F4AD1691943D161D26913400193019BD5
:10410C0003B000BD10230A4A1120D1691943D161B3
:10411C00D2690021134000930022009BFCF7F6FBB0
:10412C001120FCF71FFCEBE70010004000140040CE
:10413C000010024010B5040086B01422002101A822
:10414C0001F002F80D4B22689A4201D006B010BD66
:10415C0080200B4A8002516901435161536901A9C6
:10416C0003400093009B802390205B000193C005CB
:10417C00FE3B02930593FCF753FDE7E7002C01404F
:10418C000010024010B5040092B0142200210DA8BA
:10419C0000F0DAFF23686E4A93423BD06D4A93429B
:1041AC0062D06D4A934200D185E06C4A934200D1B3
:1041BC0095E06B4A934205D06A4A934200D1ACE039
:1041CC0012B010BD8020684B4003D9690143D961FE
:1041DC008021DA69C90202400992099A5A690A4394
:1041EC005A615B690B400A930A9B18230D930223B7
:1041FC000E93013310935D48013311930DA9FCF715
:10420C000FFD002200211D20FCF780FB1D20FCF778
:10421C00A9FBD5E78020544BC001996901439961F2
:10422C0080219A69890202400192019A5A69902070
:10423C000A435A615B69C0050B400293029BC02381
:10424C00DB000D9302230E93013310930DA9023B57
:10425C001193FCF7E5FC002200211B20FCF756FB18
:10426C001B20FCF77FFBABE780223F4B9202D96906
:10427C0090201143D961D969C0051140039103996C
:10428C005969114359615B690DA91A400492049B49
:10429C000C230D930A3B0E9301331093023B1193A5
:1042AC00FCF7BEFC002200211C20FCF72FFB1C207D
:1042BC00FCF758FB84E780222B4BD202D9691143BF
:1042CC00D961D96911400591059959691143596111
:1042DC005B691A400692069BC0231B0186E780206F
:1042EC00214B0003D9690143D9618021DA69890224
:1042FC0002400792079A5A690A435A615B69022283
:10430C000B400893089B03230E920D9310930133DB
:10431C00902011930DA9C00571E72022124B9969C9
:10432C001143996199690A4080210B920B9A5A6941
:10433C0089020A435A615B690B400C930C9B302336
:10434C000D932E3B0E93013310930233E0E7C046DE
:10435C00003801400044004000480040004C004040
:10436C0000500040001401400010024000040048BE
:10437C0010B5FCF775F810BD10B54020FCF74CFDDE
:10438C0010BDC04610B50248FCF7C0F910BDC046C0
:10439C003C1D002010B50248FDF7DEFD10BDC046E7
:1043AC00781B002010B50248FDF7D6FD10BDC046A5
:1043BC00381B002070B50400FFF772FD05000528BE
:1043CC0000D970BDFFF79AFD202223680600D96939
:1043DC000A420CD019680A4209D0998C2800C9B23B
:1043EC00FFF744FD082123689A690A439A618022E9
:1043FC00D9690A42E5D019680A42E2D08020084CFB
:10440C008000315A345B8C4206D04A1CC9053252AA
:10441C00C90D725C1A85D4E7196891431960D0E70D
:10442C000202000010B50248FFF7C4FF10BDC046E1
:10443C00B81A002010B50248FFF7BCFF10BDC046EB
:10444C00B81C002010B50648FFF7B4FF0548FFF76D
:10445C00B1FF0548FFF7AEFF0448FFF7ABFF10BDF7
:10446C006C190020381C0020381A0020B81B0020C2
:10447C00802300B585B002A80370094B05211B6889
:10448C001A0E42701A0C82701A0AC2700122037141
:10449C00044B1B7800920132FFF782F805B000BD87
:1044AC00440100204801002010B5084A0378127816
:1044BC0052B2934206D001229A4005490B7893439D
:1044CC000B7000D010BDFFF7D3FFFBE748010020B5
:1044DC0026020020F0B54F46D64646460023C0B50E
:1044EC00334A84B0D3560700591C24D002A8BB42CF
:1044FC000FD0C0230370BF3B009302223B0001216D
:10450C00FFF74EF8002004B01CBC90469946A2461A
:10451C00F0BD80220270274A1268110E4170110CF6
:10452C0081700271110A0122C170009205210132C1
:10453C00FFF736F8E6E7204B0024984640239A46CE
:10454C003F3B9946107002AEE5B22800FFF7F6FC2F
:10455C00002812D0AF4210D05346337043461A781D
:10456C004B46A3401343424613704B460222009322
:10457C0001212B003000FFF713F80134062CE3D196
:10458C0043461B78002BBDD102A880330370094B26
:10459C0005211B681A0E42701A0C827003711A0ADC
:1045AC000123C270009302223B00FEF7F9FFA9E73A
:1045BC00480100204401002026020020F0B51C4CCC
:1045CC000126257885B02B000B411E421BD082782A
:1045DC004378944632008A406146C77809041B062A
:1045EC0000795B183F021349DB191B18086852B29B
:1045FC00844663440B601049954308782570024348
:10460C000A70002D02D0002005B0F0BD802202A857
:10461C0002701A0E42701A0C827003711A0A074B40
:10462C00C2701B78022200960521FEF7B9FFEAE75B
:10463C002602002044010020250200204801002011
:10464C00FF22144BF0B51A700022134B85B01A7070
:10465C00124B01321A600024114E0125002702E092
:10466C000134062C10D03278E3B222411542F7D037
:10467C006A460F20D7730121009502226844013449
:10468C00FEF78EFF062CEED100230020337005B010
:10469C00F0BDC04648010020260200204401002045
:1046AC00250200203F2210B583789343402B1CD069
:1046BC0014D9802B0BD0C02B07D101230278934047
:1046CC000E4A14789C43147014D0002404E0017832
:1046DC000230FFF773FF0400200010BD002BF4D153
:1046EC000078FFF7ADFF0400F6E70078FFF7F2FE65
:1046FC000400F1E7FFF7BCFEEEE7C04626020020FF
:10470C00F8B54E4657464546DE46E0B51C4E07000A
:10471C00337889461500002B2BD0012290460022BD
:10472C000024924603E00134062C22D03378E2B206
:10473C009346234142461A42F5D04846FEF7F4FE12
:10474C000028F0D05B46037053464366002D08D01A
:10475C000023FA189178C2180133DBB29170AB4286
:10476C00F7D301232A0049460134FEF707FE062C35
:10477C00DCD13CBC90469946A246AB46F8BDC0463F
:10478C002502002030B505281FD840291ED0284B03
:10479C001A5C7E2926D02E291BD0402A15D1254BF8
:1047AC001A5C402A32D097235B0043432248C0183E
:1047BC00030005002E33FF332D351C78FF352D7883
:1047CC00621CAA4201D001551A7030BD194B195404
:1047DC00FBE7402AF9D119490A5C01320A5400223C
:1047EC001A54F2E7002A0ED00021124A11542F312C
:1047FC00FF314143104A521811002E32FF322D3135
:10480C001278FF310A7040221A54DEE7412909D090
:10481C00422909D0432909D0442900D1482100223A
:10482C001A54C0E74021FAE77E21F8E72E21F6E77B
:10483C002831002030310020142A002028020020CA
:10484C000023002230B50749074D084CE8180270C8
:10485C004A70E0180A7001332F310270FF31062BB9
:10486C00F4D130BD402B0020283100203031002005
:10487C0010B596232E245B00FF34C25C045D944279
:10488C0006D0825C0A70C25C0132C254012010BD99
:10489C000020FCE710B50C0005290BD840280AD0E5
:1048AC007E281AD02E2821D048280DD001002000B7
:1048BC00FFF7A8FA10BD20004021FFF7A3FA412111
:1048CC002000FFF79FFAF5E720004021FFF79AFA46
:1048DC0044212000FFF796FAECE720004021FFF777
:1048EC0091FA42212000FFF78DFAE3E720004021E6
:1048FC00FFF788FA43212000FFF784FADAE7C04675
:10490C00F0B54F46D6464646C0B5814682B00F003C
:10491C00052905D902B01CBC90469946A246F0BDAB
:10492C007E213800FFF76EFA6B464C469E1D002325
:10493C00251D338020783900FFF7ACFF217830003B
:10494C000134FEF7CDFDAC42F4D14B46DB680233AB
:10495C009A464B461A78032313404A4652781B0258
:10496C00D318063B9846002B0EDD002453461D1928
:10497C00287839000134FFF78DFFE4B22978300034
:10498C00FEF7AEFD4445F1DB70783900FFF782FF8E
:10499C0030783900FFF77EFF2E213800FFF732FA0E
:1049AC004B461B785B060ED44B46D868FEF7B0FD21
:1049BC004B461B791F2BADD801229A4007490B6837
:1049CC0093430B60A6E74B464A465B79013B537118
:1049DC00FBF752FD4B46643098609BE7D4010020F6
:1049EC000121114B11481A680A431A605A68024097
:1049FC005A601A680E4802401A601A680D48024044
:104A0C001A605A680C4802400F205A60DA6A8243D6
:104A1C00DA621A6B094802401A635A6B8A435A636A
:104A2C0000229A607047C046001002400CB8FF0884
:104A3C00FFFFF6FEFFFFFBFFFFFFC0FFACFEF0FF2A
:104A4C00037810B5DA0711D5184A51781478090291
:104A5C0082782143447812022243914206D01B07EC
:104A6C0002D51120FEF702FB002010BD9A070AD5D3
:104A7C000E4AD1789478090202792143C478120243
:104A8C0022439142EBD15A070AD5084A517914793D
:104A9C000902827921434479120222439142DED1E8
:104AAC00427A017AC079FEF739FADDE73831002015
:104ABC0010B5094B094A1B781178994206D013702E
:104ACC00012B04D002D90F20FEF7D0FA10BD0C2018
:104ADC00FEF7CCFAFAE7C0462E0200203102002085
:104AEC00F0B5DE4657464E464546E0B5534BA3B0AF
:104AFC001B780290102B00D98BE0002204A98B713B
:104B0C004F4B00249B460A714E4A12784A71200082
:104B1C00FFF714FA002877D0029BA34274D0474BBE
:104B2C001B789946002B00D17FE02301DBB204AA4D
:104B3C0094469A460D23444F63449C46BB1F9846AB
:104B4C000F235B4403934B46002661460193524668
:104B5C003B789A180A70012C6CD0052C67D05A003F
:104B6C00D2183A4B52009C4600236244D05CA042BF
:104B7C0056D00133062BF9D15B4600934346F20025
:104B8C00921B9B5C0136994643464D4698184378D8
:104B9C0007371B022B43009D07312D786DB2A946B8
:104BAC0005ADAC464B4462449BB2D3701B0A1371E7
:104BBC00837899464D46C3781B022B43009D6D7834
:104BCC006DB2A9464B449BB253711B0A9371037986
:104BDC009946437948461B0203430098807840B2BB
:104BEC00844663449BB2D3711B0A1372019AF3B2CD
:104BFC009A42ACD81300D200D21A033292B20123DB
:104C0C0005A92000FDF742FE0134E4B2062C00D0C9
:104C1C007DE723B03CBC90469946A246AB46F0BD1E
:104C2C005A00D3185B440093A8E70322E7E7039BE1
:104C3C000093A3E7064B0093A0E7C0462E0200208A
:104C4C00840100205C0100203E31002098010020EE
:104C5C008701002010B50420FFF770F90400022032
:104C6C00FFF76CF9631E9C41431E984124180020E9
:104C7C00FFF764F9431E984104190320FFF75EF90E
:104C8C00421E9041124B00191A7880181870FDF7CB
:104C9C00E9FD0400012800D010BD0120FDF744FE01
:104CAC0002220C4B1A7000220B4B1A705A709A701D
:104CBC00DA701A715A719A71084B1C70084B1A7879
:104CCC00002A00D11C700620FFF70AFFE4E7C0465B
:104CDC002F0200205C010020383100202E02002021
:104CEC0030020020F0B557464E46DE4645460023BE
:104CFC008146E0B5374883B00370374B00919A4634
:104D0C001C784B469B78002B3BD0344B0A009B46BF
:104D1C00334B0026984604239A430192314AF30000
:104D2C009F1B127803374F44002A02D0019A012AA4
:104D3C0037D09B1B4B445A7AE00011094B005B188F
:104D4C0029495B00C9180F231A40009B001BCB5C40
:104D5C0058449A180323134083710622390000F03B
:104D6C00EAF953460134E4B21C7043461B78A34263
:104D7C0001D243461C704B4601369B78F6B2B342C7
:104D8C00CCD8012C02D10223124A13700098FFF7E1
:104D9C00A7FE002003B03CBC90469946A246AB4609
:104DAC00F0BD0025E000001B584485710622390037
:104DBC0000F0C1F953460134E4B21C7043461B7831
:104DCC00A34201D243461C700135EDB2042DE9D14A
:104DDC00D1E7C0465C0100202E02002038310020B3
:104DEC00300200202F02002060010020F0B5574651
:104DFC00DE464E464546E0B5244B81469A461F7822
:104E0C0000239846224B83B09B460A234B440193C4
:104E1C00013FB84533DA4B469E78002E1BD04346F3
:104E2C00DD00ED1A4B46013EF6B2DC1CF3009E1B76
:104E3C00019B5D449C46664402E00734B4420AD0B0
:104E4C0006222100280000F067F90028F5D143461E
:104E5C000133DBB298465346FFB21F704745D7D992
:104E6C004346D800C01A0A4BF9009C46C91B604443
:104E7C0061440722013F00F05EF9B845CBDB03B07B
:104E8C003CBC90469946A246AB46F0BD2E02002093
:104E9C0038310020F0B55746DE464E464546E0B563
:104EAC00314B83B01F7800230093304B8B469A46CE
:104EBC0001907B1E9846009B43454BDA019B9E78E4
:104ECC00002E30D0009B013EDD00ED1A284B019ADC
:104EDC00F6B29C46F3009E1B13000A33F6180F2300
:104EEC0099465B466544B346D41C03271E0002E07A
:104EFC000734A34535D0A279280011094B005B1863
:104F0C0049465B0053449B5D0A409B183B40A37190
:104F1C000722210000F000F90028E9D1B346009BDC
:104F2C000133DBB200934346DFB20F4B1F70009B83
:104F3C009F42BED9D800C01A0D4BF9009C46C91B24
:104F4C0060446144072200F0F6F87B1E9846009BF3
:104F5C004345B3DB03B03CBC90469946A246AB46F6
:104F6C00F0BDB346DFE7C0462E02002060010020F2
:104F7C0038310020F0B5C64600B5837805000E0028
:104F8C00002B1DD004230A009A430024134F904693
:104F9C0008E031002800FFF77DFF0134AB78E4B264
:104FAC00A3420DD93B78002BF3D04346012BF0D113
:104FBC002800FFF71BFF0134AB78E4B2A342F1D811
:104FCC003000FFF78DFD064B1B78012B02D102221E
:104FDC00044B1A70002004BC9046F0BD2F02002038
:104FEC002E0200205C01002070B5837804005AB2B8
:104FFC00851C002A25DB5B0617D403792900DA000F
:10500C00D21A0332002392B20520FDF73FFC174B56
:10501C001B78022B22D0002B22D00020FF2B0FD18B
:10502C0021782800FFF75EFE0AE0114B00781B7810
:10503C001049DA00D21A92B20023FDF727FC0020A7
:10504C0070BD0A220121FFF75BFB0B4B01201B7883
:10505C00012BF5D12800FFF7F3FCF1E70020EFE777
:10506C0021782800FFF786FFEAE7C0465C010020A4
:10507C0030020020383100202E0200200D488546D9
:10508C000D480E490E4A002302E0D458C450043394
:10509C00C4188C42F9D30B4A0B4C002301E013606B
:1050AC000432A242FBD3FFF79BFC00F011F8FEF791
:1050BC00F3FAFEE7FF7F0020C0000020B0010020C3
:1050CC00D8510108B0010020B8340020FEE70000E0
:1050DC0070B500260C4D0D4C641BA410A64209D1D2
:1050EC00002600F039F80A4D0A4C641BA410A642A5
:1050FC0005D170BDB300EB5898470136EEE7B3000D
:10510C00EB5898470136F2E7D0510108D05101080D
:10511C00D0510108D451010830B50024A24201D16C
:10512C00002005E0035D651C0C5DA34201D0181B3B
:10513C0030BD2C00F2E7002310B59A4200D110BD0F
:10514C00CC5CC4540133F8E703001218934200D12D
:10515C00704719700133F9E7F8B5C046F8BC08BCC4
:10516C009E467047F8B5C046F8BC08BC9E467047D2
:10517C0002030405060708090A0B0C0D0E0F10108C
:10518C000102030405060708090A0B0C0D0E0F108B
:10519C00000408024170722033302032303231006A
:1051AC0031363A32363A3038000000000000000048
:1051BC0000000000010203040607080900000000BB
:0451CC0001020304D5
:0451D000E5000108ED
:0451D400BD00010811
:1051D8000100000004000000492901080000000047
:1051E800000000007929010800000000000000000C
:1051F8003C00003C1E003C3C00003C00003C3C00E5
:10520800003C2F10391E1E1E3C3C3C140000140AA2
:1052180000141400001400001414000014100513E6
:10522800080808000000656565FF0000F54F0108E3
:10523800FD34010801350108FFFF0000B81A0020FD
:10524800B81C00206C190020381C0020381A0020D7
:10525800B81B002001000000FF000000B146010853
:1052680000000000B544010800127A00FF000000A9
:10527800020001030000000000000000030002001B
:105288000100010000020300000003010200000009
:105298000000000000FF000000FF010000FF000008
:1052A80000010000000100000001020304050301E1
:1052B80000040205040103020005020104000305BD
:040000050801508915
:00000001FF
